:100000000C94CA000C94E7000C94E7000C94E700F1
:100010000C94E7000C94E7000C94E7000C94E700C4
:100020000C94E7000C94E7000C945B040C94E7003C
:100030000C94E7000C94E7000C94E7000C94E700A4
:100040000C945D040C94E7000C94E7000C94E7001A
:100050000C94E7006C781A3F0000803FC66D143F97
:10006000BC74133D00000000158C4A3E9565083EA7
:1000700099BB163E9D11A53D82E2C73C6C78FA3EC5
:100080000000803FDD24863E17B7D13A0000000013
:100090003B014D3EA245F63E3D2C543EB37BF23B28
:1000A000000000000BB5E63E0000803FA4DFBE3E2E
:1000B000FAEDEB3D4A7B833D1B2F5D3EC364AA3EB8
:1000C000EEEBC03D17B7D13C3480B73B0000803F1A
:1000D00011361C3F26E4033D31082C3D0AD7233C52
:1000E00072F90F3EE2E9153E98DD933DE3C7983D76
:1000F0009FABAD3C0000803F44696F3E00000000B4
:100100000000000000000000211FB43E7DAEB63D9F
:10011000B37BF23C00000000000000000000803FC4
:100120001973D73E0DE02D3ED044583D000000002D
:100130001F856B3E6076CF3EB515BB3E7E8CB93DCC
:1001400052491D3A0000803F9031F73EA69B443B48
:1001500052491D3A000000001B0DA03E52491D3EB1
:1001600062A1563D17B7513C17B75139423EE83DA1
:100170000000803FB072083F000000000000000057
:1001800071AC8B3EA9A4CE3EF38E933E8FC2753CDC
:1001900075021A3C11241FBECFE5D8E0DEBFCDBFEB
:1001A00012E0A0E6B0E0E4E5F8E102C005900D92AF
:1001B000AA3EB107D9F723E0AAEEB2E001C01D9232
:1001C000A13CB207E1F70E9491040C94280C0C9416
:1001D00000005D9BFECF8CB90895CF93DF93C82FAD
:1001E000D92F8881811531F021960E94E9008991EB
:1001F0008111FBCFDF91CF910895EF92FF920F9382
:100200001F93CF93DF9300D000D000D0CDB7DEB7DF
:10021000482F592F4115510509F454C0FE0131965C
:10022000F12C9A01ADECBCEC0E94120C9C013695AD
:1002300027953695279536952795C901880F991FDB
:10024000880F991F820F931F880F991F9A01281BEF
:10025000390BC901805D80834A30510598F0319691
:10026000F3949A010E94120CAC015695479556954D
:1002700047955695479536E0F312D3CF0F2EF5E00C
:10028000FF2EF02DEF2C01E010E00C0F1D1F0F5F73
:100290001F4F0F0D111DF7FC1A95F80182918F0168
:1002A0000E94E900EA94E114C4F70F900F900F90B8
:1002B0000F900F900F90DF91CF911F910F91FF90B2
:1002C000EF90089580E30E94E900EFCFDF92EF9274
:1002D000FF920F931F93CF93DF93CDB7DEB728978D
:1002E0000FB6F894DEBF0FBECDBF062F172F282FF5
:1002F000392F0D831E832F833887E42E20E030E0D2
:10030000A9016D817E818F8198850E94400A8115A7
:100310000CF464C06D817E818F8198850E94B70A3C
:1003200069837A838B839C8389819A810E94FD00F3
:100330008EE20E94E900E11409F442C0A981BA8169
:10034000BD0180E090E00E94E60A262F372F482F5B
:10035000592F6D817E818F8198850E94D309B62F98
:10036000A72FF82FE92FF12C20E030E040E251E4F4
:100370006B2F7A2F8F2F9E2F0E949D0B062F172FEA
:100380008D8399830E94B70AD62E80E38D0D0E943B
:10039000E9006D2D70E080E090E00E94E80A262FD1
:1003A000372F482F592F602F712F8D8199810E94EF
:1003B000D309B62FA72FF82FE92FF394EF10D4CF3E
:1003C00028960FB6F894DEBF0FBECDBFDF91CF9158
:1003D0001F910F91FF90EF90DF9008958DE20E94A2
:1003E000E9008D819E81AF81B885B0588D839E8351
:1003F000AF83B8878FCF84E690E00E94ED0080E85D
:1004000090E00E94ED0086EA90E00E94ED000895E1
:100410007F928F929F92AF92BF92CF92DF92EF9294
:10042000FF920F931F93CF93DF9300D000D000D0A3
:10043000CDB7DEB7A82FB92F69837A834B835C834E
:10044000FD018D0100581F4F40E050E0BA018D9131
:10045000480F511D611D711DA017B107C1F7DB01C8
:10046000CA017723ACF0689416F8B595A7959795CF
:1004700087951694D1F77C011E821D82D12C812C88
:10048000912C5401CC24C3946894772471F814C03F
:1004900081589F4FAF4FBF4FE6CF8C2DD11441F005
:1004A0008D1531F02D813E812F5F3F4F3E832D838F
:1004B000D82EE017F107A1F0419150E04E195F09E5
:1004C0009A01DA010E940A0C860E971EA81EB91E18
:1004D0004B30510514F7872D463F5F4FFCF2E9CFB3
:1004E000C501B4010E94E60A20E030E040E05CE390
:1004F0000E949D0BE981FA816083718382839383DB
:100500002D813E81B90180E090E00E94E60A20E062
:1005100030E04EEF52E40E94450AEB81FC8160839B
:100520007183828393830F900F900F900F900F90A1
:100530000F90DF91CF911F910F91FF90EF90DF907F
:10054000CF90BF90AF909F908F907F900895E6E0FE
:10055000F3E0A2EFB2E08AE193E0119211921192DE
:1005600011921D921D921D921D92E817F907A9F78D
:100570001092F1021092F0021092EF021092EE022D
:100580001092ED021092EC021092EB021092EA022D
:100590000895611589F09398949885BB84E08A95B5
:1005A000F1F7959A94E09A95F1F7959884E191E0A6
:1005B0000197F1F700000895939AEECFCF93DF9360
:1005C000C82FD92F8881811539F0219660E00E94CB
:1005D000C90289918111FACFDF91CF91089561E02D
:1005E00081E00E94C9028FEF95E30197F1F700C007
:1005F000000008950E94A70281E080933C030E94BE
:10060000EF0261E080E80E94C90289EA90E00E945E
:10061000DE0286EB90E00E94ED000895BF92CF923B
:10062000DF92EF92FF920F931F93CF93DF93CDB79B
:10063000DEB72E970FB6F894DEBF0FBECDBF0E9477
:10064000EF0261E080E80E94C90280ED90E00E9424
:10065000DE028FED90E00E94ED0016E0D12CE12C3F
:10066000F12C00E011501111ECC020E030E040EA24
:1006700050E46D2D7E2D8F2D902F0E94450A6093A2
:1006800060007093610080936200909363000E9409
:10069000EF0261E080E80E94C90286E091E00E94DA
:1006A000DE0261E080EC0E94C902809160009091BE
:1006B0006100A0916200B09163008B879C87AD8739
:1006C000BE8720E030E0A901BC01CD010E94400AB4
:1006D00081150CF4DDC06B857C858D859E850E941F
:1006E000B70AC62ED72EC114D10409F4DFC0FE010B
:1006F0003196A6019A01ADECBCEC0E94120C9C0153
:10070000369527953695279536952795C901880FF3
:10071000991F880F991F820F931F880F991FDA0165
:10072000A81BB90BCD01805D80834A30510588F04C
:1007300031961F5F9A01ADECBCEC0E94120CAC012B
:10074000569547955695479556954795163091F687
:1007500015E0B12E81E090E08C0F9D1F0196FC0109
:10076000E10FF11D17FDFA958F0160E0D8018E9120
:100770008D010E94C902BA94B114BCF760E08EE208
:100780000E94C902B60180E090E00E94E60A262F8E
:10079000372F482F592F6B857C858D859E850E942C
:1007A000D30920E030E040E251E40E949D0B0E941A
:1007B000B70A862F60E0805D0E94C90283E191E064
:1007C0000E94ED0060916000709161008091620074
:1007D0009091630041E00E94660183E091E00E94F5
:1007E000ED00BFEFEFEBF1E2B150E040F040E1F798
:1007F00000C000000E94FB010E94EF0282E391E032
:100800000E94DE022FEF3FEB81E22150304080401A
:10081000E1F700C000000E94EF028DE391E00E942A
:10082000DE022E960FB6F894DEBF0FBECDBFDF916D
:10083000CF911F910F91FF90EF90DF90CF90BF90DD
:10084000089580913D03811104C020913D0321153D
:10085000E1F310923D03AE014F5F5F4FBE01695F50
:100860007F4F8FE393E00E9408022F8138854985EE
:100870005A856D2D7E2D8F2D902F0E94D409D62E56
:10088000E72EF82E092F84EB90E00E94ED00EACECF
:1008900060E08DE20E94C9028B859C85AD85BE8596
:1008A000B0588B879C87AD87BE8715CF60E080E30B
:1008B0000E94C90263CF369A18951F921FB61F92E5
:1008C00011242F938F939F93EF93FF9384B195B14E
:1008D0009093C0038093BF038091BF039091C003A6
:1008E000E0913E0321E02E0F20933E03F0E0969529
:1008F000879596958795E15CFC4F808380913E03B8
:1009000081154CF0FF91EF919F918F912F911F9046
:100910001FBE1F90189510923E0381E080933D0307
:10092000F1CFCDB7DEB7C254D1090FB6F894DEBF10
:100930000FBECDBF8FEF84BB81B3886381BB29E934
:1009400039E581E0215030408040E1F7000061E06E
:1009500088E30E94C902AFEFB5E31197F1F700C039
:10096000000061E088E30E94C902EEE9F1E03197FE
:10097000F1F700C061E088E30E94C90261E08CE009
:100980000E94C90261E086E00E94C90261E081E044
:100990000E94C90289E995E10197F1F700C010BCF6
:1009A00087E489B988E18AB986E880BD80E487B99F
:1009B0008FE886B98AE083BF8CEA8CBF89B78260F2
:1009C00089BF81B38B7781BB82B3846882BB789403
:1009D00083E491E00E94DE029FEFAFEDB0E1915021
:1009E000A040B040E1F700C000000E94EF028DE49B
:1009F00091E00E94DE020E94FB01CE018996FE0179
:100A00003196FEA7EDA79E01205E3F4F38AB2FA782
:100A10008FAF21969FAF21973DA522963FAF22979A
:100A20008EA523968FAF239788248394912C8C0EC8
:100A30009D1E94E1890E911C66246394712C6C0EAA
:100A40007D1EA8E26A0E711C6DC15F9BFECF8CB14A
:100A50008830C9F08F37B9F08D3011F18A3001F14B
:100A600090EE980F9F3508F05FC1E0911A03EF31C7
:100A700008F05AC191E09E0F90931A03F0E0E55EF2
:100A8000FC4F808351C180911A03811509F44CC138
:100A9000815080931A0384E591E00E94ED0044C1E7
:100AA0008DE00E94E9008AE00E94E90080911A032B
:100AB000E82FF0E0E55EFC4F1082811103C0109238
:100AC0001A0332C1EBE1F3E08081803209F068C49F
:100AD00080E08F5F082F10E0055E1C4FD8019C91CD
:100AE0009032B9F3D8018C9190E0811539F09F5F75
:100AF000F801E90FF11D80818032B9F7911511F1EC
:100B0000D801FE013196A801490F511D0AC080830A
:100B1000A417B50771F031962FA538A9E217F3078E
:100B200041F08D912FE9280F2A3188F78052808378
:100B3000EFCFE1E0F0E0EC0FFD1FE90FF11D1082B7
:100B4000953051F083EC91E00E94ED00C8010E94C5
:100B5000ED000E94FB01B3CF89818235B1F08E3464
:100B600009F04CC08A818F3469F78B81893451F741
:100B70008C81833539F78D81853421F789E891E0BF
:100B80000E94ED000E940E039ACF8A818534D1F62F
:100B90008B818335B9F68C818534A1F68D818435BE
:100BA00089F688E591E00E94ED000E94A70210926C
:100BB000EC0280E090E0A0E2B1E4809360009093CA
:100BC0006100A0936200B09363001092EB02109258
:100BD000EA021092F1021092F0021092EF021092CB
:100BE0003C0310923B030E94EF028DE391E00E94D0
:100BF000DE0281E791E00E94ED0061CF833509F0CC
:100C0000A1CF8A81843509F09DCF8B81813409F091
:100C100099CF8C81823509F095CF8D81843509F08B
:100C200091CF8AEA91E00E94ED000E94FA0247CF3C
:100C30008FEF97ED0197F1F700C00000879976C01C
:100C4000AFEFB7ED1197F1F700C00000879BFECF23
:100C5000EFEFF7ED3197F1F700C000000E940E03AF
:100C600065C08FEF97ED0197F1F700C00000829902
:100C70005FC0AFEFB7ED1197F1F700C00000829BA6
:100C8000FECFEFEFF7ED3197F1F700C000000E94C3
:100C9000FA024EC00091EA021091EB020F5F1F4F63
:100CA0001093EB020093EA0220E030E040E051E4D0
:100CB000609160007091610080916200909163008A
:100CC0000E949D0B29A53AA54BA55CA50E94400A50
:100CD000811551F04CF00035110500F181E0809351
:100CE0003B0310923C031AC081E08093EC02109207
:100CF000EE021092ED028CED91E00E94ED00C80131
:100D00000E94FD0083E091E00E94ED00E4CF88970F
:100D100028F081E080933B0310923C0380913B03D9
:100D2000811174C05F9991CE879B82CF829B99CFAE
:100D300080913D03811591F310923D0322964FADB2
:100D4000229723965FAD23976FAD21967FAD2197B4
:100D50008FE393E00E94080280913C038115F1F239
:100D60008091EC02811509F495CFF090F1020F2DDE
:100D700010E0000F111F000F111F98012A5F3C4F58
:100D8000690129A53AA54BA55CA5D6016D917D9178
:100D90008D919D910E94D409F601608371838283B5
:100DA00093830E501D4F29813A814B815C81D8017C
:100DB0006D917D918D919D910E94D409F801608380
:100DC0007183828393832091EF023091F0022F5F31
:100DD0003F4F3093F0022093EF028091ED0290910B
:100DE000EE0201969093EE028093ED0228303105D9
:100DF00008F48DCFF4E0FF1608F089CFF394F09259
:100E0000F1021092F0021092EF0281CF8091EC0279
:100E1000811531F1C0906000D0906100E0906200D7
:100E2000F090630006E013E022EF32E03EAB2DAB22
:100E3000CE0101961C010F2EFFE65F2EF02D0F2E26
:100E4000F2E14F2EF02D93E899ABAAE3ABAB9CAE49
:100E50008BAE7EAE6DAE952CA42C2601370147C01B
:100E60000E94EF0261E080E80E94C90288EF91E0F1
:100E70000E94DE0261E080EC0E94C90282E092E002
:100E80000E94DE028BE092E00E94ED0010923B0394
:100E90003CC2F101148A158A168A178A70C08C2DFB
:100EA0009D2DAE2DBF2DEFA9F8AD848B958BA68B14
:100EB000B78B65C06C2D7D2D8E2D9F2D7CC0B12CE8
:100EC0008CC0F92DEA2D79A96BA99F2EAE2E79AB96
:100ED0006BABAFA9B8ADCD92DD92ED92FD92B4E0CF
:100EE0002B0E311C23E00A31120709F47EC0F801F1
:100EF00061917191819191918F0120E030E040E00A
:100F00005EE30E949D0B69AF7AAF882EB92EADA922
:100F1000BEA96D917D918D919D91BEABADAB20E051
:100F200030E040E05EE30E949D0BC62ED72EE82EF7
:100F3000F92E38AE2FAA70E060E09B01A9016C2D5C
:100F40007D2D8E2D9F2D0E94400A81150CF4A1CF7E
:100F500020E030E040E85FE36C2D7D2D8E2D9F2D4D
:100F60000E94980B811509F00CF499CF80E090E075
:100F7000A0E8BFE3F101848B958BA68BB78BA3010F
:100F8000920169AD7AAD882D9B2D0E94D309C62EA2
:100F9000D72EE82EF92E70E060E09B01A9016C2DA0
:100FA0007D2D8E2D9F2D0E94400A81150CF082CF41
:100FB00060E070E0CB01C62ED72EE82EF92EBB24C0
:100FC000B394F9A9EBA9292D3A2D4F2F5E2F0E943A
:100FD000980B811509F00CF472CFB11409F471CF9C
:100FE000FC2DED2D7E2D6F2D70CF6DAC7EAC5F2E68
:100FF0008BAC9CAC4E2E20E030E040E85FE3B72F96
:10100000A62F6F2F7E2F8B2F9A2F0E94400A8115BB
:1010100034F0DE0111965D0129A83BA81BC0512CBC
:10102000412C38EC39AB82E48BABF3CF70E060E05D
:101030009B01A9016E2D7F2D802F912F0E94400AC8
:1010400081157CF5D6011D921D921D921D92A8144A
:10105000B90489F1F50161917191819191915F01DB
:10106000252D342D422D532D0E94450AE62EF72EB4
:10107000082F192F6501F4E0CF1AD10820E030E0E5
:1010800040E85FE30E94980B811581F27CF280E0DA
:1010900090E0A0E8BFE3F60180839183A283B3834D
:1010A000D6CF8E2D9F2DA02FB12FF6018083918357
:1010B000A283B383CCCF8BE292E00E94ED0086E462
:1010C00092E00E94ED008E010F5F1F4F04C082E589
:1010D00092E00E94ED00F8016191719181919191EE
:1010E0008F0143E00E9466010615170581F785E52B
:1010F00092E00E94ED0022EB32E03EAB2DAB84E5A6
:1011000090E09CAB8BABA1E0B0E0BAABA9AB1DAE5D
:10111000B8E2BFABEBE6E9AFFEE6FAAF2EE42BAFE9
:1011200014C029A93AA92F5F3F4F3AAB29AB8DA92B
:101130009EA907969EAB8DABABA9BCA99896BCABFC
:10114000ABAB2930310509F49CC0FE0131965F013B
:101150000BA91CA9F12CE12C6701F801259135910F
:1011600045915591D5016D917D918D919D915D0137
:101170000E94D309262F372F482F592F0E949D0BED
:10118000262F372F482F592F6F2D7E2D8D2D9C2DDB
:101190000E94D409F62EE72ED82EC92E0C5F1F4FC1
:1011A000A814B904D1F60BA91CA90C5E1F4F140199
:1011B000F8012591359145915591F1016191719118
:1011C000819191911F010E94D309462E572EA82E7E
:1011D000B92E20E030E040EC50E40E949D0B242D1D
:1011E000352D4A2D5B2D0E949D0B262F372F482F22
:1011F000592F6F2D7E2D8D2D9C2D0E94D409F62EFA
:10120000E72ED82EC92E0C5F1F4F2614370481F607
:1012100089E592E00E94ED0089A99AA90E94FD004B
:1012200083E692E00E94ED008DA99EA90E94ED0048
:1012300086E692E00E94ED0043E06F2D7E2D8D2D1D
:101240009C2D0E94660183E091E00E94ED002F2D0D
:101250003E2D4D2D5C2DBFA9A9ADFAADEBAD6B2F89
:101260007A2F8F2F9E2F0E94980B811509F00CF476
:1012700058CFF9A9F150FDAFFFAAE9AEDAAECBAE77
:1012800050CF20E030E040E85FE3BFA9A9ADFAAD60
:10129000EBAD6B2F7A2F8F2F9E2F0E94400A811566
:1012A00009F00CF43FC00E94EF0261E080E80E9468
:1012B000C9020E94EF0287E892E00E94DE0261E02C
:1012C00080EC0E94C9028FE892E00E94DE0287E96A
:1012D00092E00E94ED0043E0EFA959AD3AAD2BAD8D
:1012E0006E2F752F832F922F0E94660183E892E064
:1012F0000E94ED00AFEFBFE5E4E5A150B040E04053
:10130000E1F700C0000010923B0361E080E80E941A
:10131000C9020E94EF028DE491E00E94DE020E9469
:10132000FB0100CD0E94EF0261E080E80E94C9024B
:101330000E94EF028AE692E00E94DE0261E080EC09
:101340000E94C9022DADF7E02F9F800111240E5499
:101350001D4FC8010E94DE0286E792E00E94ED0068
:10136000C8010E94ED008AEA92E00E94ED0043E08D
:10137000EFA959AD3AAD2BAD6E2F752F832F922F5C
:101380000E94660183E892E00E94ED003FEF8FE546
:1013900094E5315080409040E1F700C00000B3CFA9
:1013A0000BE113E09FCB5058BB27AA270E94EB0903
:1013B0000C945E0B0E94500B38F00E94570B20F0EB
:1013C00039F49F3F19F426F40C944D0B0EF4E0957C
:1013D000E7FB0C94470BE92F0E946F0B58F3BA17E9
:1013E000620773078407950720F079F4A6F50C943B
:1013F000910B0EF4E0950B2EBA2FA02D0B01B90125
:1014000090010C01CA01A0011124FF27591B99F07A
:10141000593F50F4503E68F11A16F040A22F232F86
:10142000342F4427585FF3CF469537952795A795D6
:10143000F0405395C9F77EF41F16BA0B620B730B7D
:10144000840BBAF09150A1F0FF0FBB1F661F771FEE
:10145000881FC2F70EC0BA0F621F731F841F48F4A3
:10146000879577956795B795F7959E3F08F0B0CF2C
:101470009395880F08F09927EE0F97958795089513
:101480000E94230B08F481E008950E94590A0C94ED
:101490005E0B0E94570B58F00E94500B40F029F44D
:1014A0005F3F29F00C94470B51110C94920B0C9454
:1014B0004D0B0E946F0B68F39923B1F3552391F301
:1014C000951B550BBB27AA2762177307840738F0B3
:1014D0009F5F5F4F220F331F441FAA1FA9F335D010
:1014E0000E2E3AF0E0E832D091505040E695001CC4
:1014F000CAF72BD0FE2F29D0660F771F881FBB1F7E
:10150000261737074807AB07B0E809F0BB0B802D5B
:10151000BF01FF2793585F4F3AF09E3F510578F087
:101520000C94470B0C94920B5F3FE4F3983ED4F37A
:10153000869577956795B795F7959F5FC9F7880F5B
:10154000911D9695879597F90895E1E0660F771FAD
:10155000881FBB1F621773078407BA0720F0621B3E
:10156000730B840BBA0BEE1F88F7E09508950E9469
:10157000770B88F09F5798F0B92F9927B751B0F0A3
:10158000E1F0660F771F881F991F1AF0BA95C9F707
:1015900014C0B13091F00E94910BB1E008950C9409
:1015A000910B672F782F8827B85F39F0B93FCCF3BC
:1015B000869577956795B395D9F73EF49095809584
:1015C000709561957F4F8F4F9F4F0895E89409C0A4
:1015D00097FB3EF490958095709561957F4F8F4F66
:1015E0009F4F9923A9F0F92F96E9BB279395F6957C
:1015F000879577956795B795F111F8CFFAF4BB0FFA
:1016000011F460FF1BC06F5F7F4F8F4F9F4F16C05D
:10161000882311F096E911C0772321F09EE8872FE7
:10162000762F05C0662371F096E8862F70E060E0A3
:101630002AF09A95660F771F881FDAF7880F96951C
:10164000879597F90895990F0008550FAA0BE0E8C0
:10165000FEEF16161706E807F907C0F01216130674
:10166000E407F50798F0621B730B840B950B39F4B4
:101670000A2661F0232B242B252B21F408950A261A
:1016800009F4A140A6958FEF811D811D089597F95A
:101690009F6780E870E060E008959FEF80EC089518
:1016A00000240A9416161706180609060895002441
:1016B0000A9412161306140605060895092E0394BB
:1016C000000C11F4882352F0BB0F40F4BF2B11F42F
:1016D00060FF04C06F5F7F4F8F4F9F4F089557FD8E
:1016E0009058440F551F59F05F3F71F04795880F90
:1016F00097FB991F61F09F3F79F087950895121627
:1017000013061406551FF2CF4695F1DF08C01616D2
:1017100017061806991FF1CF869571056105089483
:101720000895E894BB2766277727CB0197F908959A
:101730000E94230B08F48FEF08950E94B00B0C94C5
:101740005E0B0E94500B38F00E94570B20F095233F
:1017500011F00C94470B0C944D0B11240C94920B2C
:101760000E946F0B70F3959FC1F3950F50E0551FCA
:10177000629FF001729FBB27F00DB11D639FAA27E6
:10178000F00DB11DAA1F649F6627B00DA11D661F35
:10179000829F2227B00DA11D621F739FB00DA11D56
:1017A000621F839FA00D611D221F749F3327A00D10
:1017B000611D231F849F600D211D822F762F6A2FAC
:1017C00011249F5750409AF0F1F088234AF0EE0F11
:1017D000FF1FBB1F661F771F881F91505040A9F73E
:1017E0009E3F510580F00C94470B0C94920B5F3F89
:1017F000E4F3983ED4F3869577956795B795F7957A
:10180000E7959F5FC1F7FE2B880F911D96958795F1
:1018100097F908950E94120C332312F48A1B9B0B34
:101820000C94230CA29FB001B39FC001A39F700D25
:10183000811D1124911DB29F700D811D1124911DD8
:1018400008950E94120CB7FF0895821B930B089510
:04185000F894FFCF3A
:10185400000020410D0A537065656368207265635A
:101864006F676E697A65722072656164790D0A002A
:10187400436F6D6D616E64733A20276E6F69736593
:10188400272C20277374617274272C2027726573A8
:101894006574270D0A003E20004C697374656E69F7
:1018A4006E672E2E2E000D0A5B5265636F676E699C
:1018B40074696F6E5D20537461727465640D0A00FF
:1018C40043616C6962726174696E672E2E2E000D1D
:1018D4000A5B43616C6962726174696F6E5D205367
:1018E400746172746564202D2042652073696C658F
:1018F4006E74210D0A004E6F69736520666C6F6FFC
:10190400723A000D0A5B43616C6962726174696FBB
:101914006E5D204E6F69736520666C6F6F72203D3B
:10192400200043616C696220646F6E6500526561DA
:10193400647900526573657474696E6700526561F9
:1019440064792100082008005B554152545D20450C
:101954007865637574696E672052455345540D0A62
:10196400005B554152545D20524553455420636FEA
:101974006D706C6574650D0A005B554152545D20B1
:10198400457865637574696E6720434150545552B8
:1019940045204E4F4953450D0A005B554152545D55
:1019A40020457865637574696E67205354415254B9
:1019B4000D0A005B554152545D20496E76616C6995
:1019C4006420636F6D6D616E643A20000D0A5B568E
:1019D40041445D205472696767657265642061746F
:1019E400206672616D6520004E6F207370656563BB
:1019F40068006465746563746564000D0A5B526510
:101A040073756C745D204E6F207370656563682018
:101A140064657465637465640D0A000D0A5B526540
:101A2400636F676E6974696F6E5D20436F6D706C70
:101A34006574650D0A0046656174757265733A20B4
:101A44005B002C20005D0D0A0054656D706C6174A0
:101A5400652000202800293A20005265636F676ED4
:101A6400697A65643A0050726564696374696F6E7B
:101A74003A2000290D0A00526573756C743A0055BA
:101A84004E4B4E4F574E0050726564696374696FD4
:101A94006E3A20554E4B4E4F574E2028646973744E
:101AA4003D00465245455A45004752414200000018
:101AB4004A554D500000004C4946540000004F4E1A
:101AC40000000000005055534800000052494748A8
:0A1AD4005400005354415254000026
:00000001FF
